:100000000C948B000C94AA000C94AA000C94AA00E7
:100010000C94AA000C94AA000C94AA000C94AA00B8
:100020000C94AA000C94AA000C94AA000C94AA00A8
:100030000C94AA000C94AB020C94AA000C94AA0095
:100040000C94AA000C94AA000C94AA000C94AA0088
:100050000C94AA000C94AA000C94AA000C94AA0078
:100060000C94AA000C94AA000C94AA000C94AA0068
:100070000C94AA000C94AA000C94AA000C94AA0058
:100080000C94AA000C94AA000C94AA006305C40561
:10009000C405C405C405C405C405C405C405C40518
:1000A000C405C405C405C405C405C405C405C40508
:1000B000C405C405C405C405C405C405C405C405F8
:1000C000C405C405C405C405C405C405C405C405E8
:1000D000C405C005C405C405C405C405C405C405DC
:1000E000B905C405C405C405C405C405BD05670537
:1000F0006E0575057C0583058A05910595059905AD
:10010000C405C405C405C405C405C405C4059D05CE
:10011000A405AB05B20511241FBECFEFD0E4DEBFAE
:10012000CDBF11E0A0E0B1E0E8E4FFE000E00BBFEC
:1001300002C007900D92A235B107D9F721E0A2E5E0
:10014000B1E001C01D92AB37B207E1F70E94D705BD
:100150000C94A2070C940000CF93DF9300D01F9261
:10016000CDB7DEB789837B836A8389818A3031F496
:100170008A819B81BC018DE00E94AC0080EC90E004
:10018000FC018081882F90E080729927892BB1F340
:1001900086EC90E02981FC01208380E090E00F90C4
:1001A0000F900F90DF91CF910895CF93DF9300D000
:1001B0001F92CDB7DEB789836A834B838B818823F7
:1001C00071F08A81282F30E081E090E002C0880F32
:1001D000991F2A95E2F7982F8981892B0EC08A8171
:1001E000282F30E081E090E002C0880F991F2A9507
:1001F000E2F7982F9095898189230F900F900F90A7
:10020000DF91CF910895CF93DF9300D0CDB7DEB7C4
:1002100089836A838A81282F30E081E090E002C0E0
:10022000880F991F2A95E2F7982F898189230F90CB
:100230000F90DF91CF9108950F931F93CF93DF938A
:10024000CDB7DEB708E210E040E064E08FEF0E9437
:10025000D500F8018083000086E290E0FC018081F7
:10026000809560E00E940301882311F081E3D3C0F0
:1002700086E290E0FC018081809561E00E940301AC
:10028000882311F084E3C7C086E290E0FC018081FE
:10029000809562E00E940301882311F087E3BBC0D0
:1002A00086E290E0FC018081809563E00E9403017A
:1002B000882311F08AE2AFC008E210E040E065E078
:1002C0008FEF0E94D500F8018083000086E290E065
:1002D000FC018081809560E00E940301882311F079
:1002E00082E399C086E290E0FC018081809561E024
:1002F0000E940301882311F085E38DC086E290E01F
:10030000FC018081809562E00E940301882311F046
:1003100088E381C086E290E0FC018081809563E003
:100320000E940301882311F080E375C008E210E009
:1003300040E066E08FEF0E94D500F8018083000066
:1003400086E290E0FC018081809560E00E940301DC
:10035000882311F083E35FC086E290E0FC01808196
:10036000809561E00E940301882311F086E353C069
:1003700086E290E0FC018081809562E00E940301AA
:10038000882311F089E347C086E290E0FC01808178
:10039000809563E00E940301882311F083E23BC053
:1003A00008E210E040E067E08FEF0E94D500F8011E
:1003B0008083000086E290E0FC018081809560E00F
:1003C0000E940301882311F081E425C086E290E0B9
:1003D000FC018081809561E00E940301882311F077
:1003E00082E419C086E290E0FC018081809562E0A1
:1003F0000E940301882311F083E40DC086E290E09F
:10040000FC018081809563E00E940301882311F044
:1004100084E401C080E0DF91CF911F910F91089596
:10042000CF93DF93CDB7DEB72C970FB6F894DEBF2E
:100430000FBECDBF6D837E838F83988729873A87D0
:100440004B875C878D819E81AF81B88529853A85F0
:100450004B855C85BC01CD010E947707DC01CB0197
:1004600089839A83AB83BC8389819A81AB81BC8168
:10047000892B8A2B8B2B29F489859A85AB85BC85A2
:1004800011C089859A85AB85BC858D839E83AF839A
:10049000B88789819A81AB81BC8189879A87AB872C
:1004A000BC87D0CFBC01CD012C960FB6F894DEBF2F
:1004B0000FBECDBFDF91CF910895CF93DF93CDB71E
:1004C000DEB781E890E02BE0FC01208388E890E033
:1004D0002DE730E0FC01318320838FE690E022E0BD
:1004E000FC01208384E890E0FC011182108280915D
:1004F0000E0190910F01A0911001B0911101809314
:10050000530190935401A0935501B09356018FE588
:1005100090E02FE530E0F90120812068FC01208384
:100520000000DF91CF910895CF93DF93CDB7DEB771
:1005300081E890E0FC0110820000DF91CF910895E6
:10054000CF93DF93CDB7DEB781E0809352010000F7
:10055000DF91CF9108951F920F9200905F000F924C
:10056000112400905B000F922F933F934F935F9362
:100570006F937F938F939F93AF93BF93EF93FF936B
:10058000CF93DF93CDB7DEB78091530190915401A3
:10059000A0915501B09156010197A109B10980932D
:1005A000530190935401A0935501B093560180914B
:1005B000530190915401A0915501B0915601892B9E
:1005C0008A2B8B2B91F40E94A00280910E019091B6
:1005D0000F01A0911001B0911101809353019093EC
:1005E0005401A0935501B09356010000DF91CF91C3
:1005F000FF91EF91BF91AF919F918F917F916F91FB
:100600005F914F913F912F910F9000925B000F905F
:1006100000925F000F901F901895CF93DF9300D04A
:1006200000D0CDB7DEB769837A838B839C838981C1
:100630009A81AB81BC8180930E0190930F01A093AE
:100640001001B093110180910E0190910F01A091C2
:100650001001B09111018093530190935401A09324
:100660005501B093560100000F900F900F900F901E
:10067000DF91CF910895CF93DF93CDB7DEB784E2BA
:1006800090E020EBFC0120838CE490E02CE430E04F
:10069000F90120812165FC0120838FE590E02FE5A1
:1006A00030E0F90120812068FC0120830000DF9107
:1006B000CF910895CF93DF931F92CDB7DEB7898393
:1006C0008EE490E02981FC01208385E290E020EA1D
:1006D000FC01208300008DE490E0FC0180818823F0
:1006E000D4F784E290E020EBFC01208300000F901F
:1006F000DF91CF910895CF93DF9300D0CDB7DEB7D0
:100700009A83898389819A81892B19F01A821982A7
:1007100001C0000089819A81892BA9F4809114017C
:10072000882F90E082959295907F9827807F9827D8
:10073000982F80911301892B809357018091570145
:100740000E945A0303C01A821982000089819A818B
:100750000F900F90DF91CF910895CF93DF9300D04A
:10076000CDB7DEB79A83898389819A8182309105DA
:1007700009F487C08330910534F4009781F0019724
:1007800009F446C062C18430910509F4ECC084309C
:1007900091050CF4AFC0059709F41EC156C18091B4
:1007A000470180937A0180911401882F90E09C0189
:1007B00021503109C901880F991F880F991F820F95
:1007C000931F8B5E9E4FFC018081882F90E0829565
:1007D0009295907F9827807F9827482F80911301CA
:1007E000882F90E09C0121503109C901880F991F81
:1007F000880F991F820F931F875D9E4FFC01808198
:10080000842B8093790181E090E09A83898320C1D1
:100810008091470180937A0180911401882F90E0A4
:100820009C0121503109C901880F991F880F991F18
:10083000820F931F8B5E9E4FFC018081882F90E07A
:1008400082959295907F9827807F9827482F809156
:100850001301882F90E09C0121503109C901880FB4
:10086000991F880F991F820F931F875D9E4FFC0170
:100870008081842B8093790182E090E09A83898340
:10088000E7C08091480180937A0180911401882FFC
:1008900090E09C0121503109C901880F991F880FF0
:1008A000991F820F931F8A5E9E4FFC018081882FC3
:1008B00090E082959295907F9827807F9827482F87
:1008C00080911301882F90E09C0121503109C901CA
:1008D000880F991F880F991F820F931F865D9E4F67
:1008E000FC018081842B8093790183E090E09A83DE
:1008F0008983AEC08091490180937A01809114016F
:10090000882F90E09C0121503109C901880F991F5F
:10091000880F991F820F931F895E9E4FFC01808173
:10092000882F90E082959295907F9827807F9827D6
:10093000482F80911301882F90E09C0121503109AC
:10094000C901880F991F880F991F820F931F855D1A
:100950009E4FFC018081842B8093790184E090E09C
:100960009A83898375C080914A0180937A0180912E
:100970001401882F90E09C0121503109C901880F92
:10098000991F880F991F820F931F885E9E4FFC014D
:100990008081882F90E082959295907F9827807F24
:1009A0009827482F80911301882F90E09C012150B7
:1009B0003109C901880F991F880F991F820F931F52
:1009C000845D9E4FFC018081842B8093790185E0BA
:1009D00090E09A8389833CC080914B0180937A0197
:1009E00080911401882F90E09C0121503109C901A8
:1009F000880F991F880F991F820F931F875E9E4F44
:100A0000FC018081882F90E082959295907F9827B5
:100A1000807F9827482F80911301882F90E09C01B8
:100A200021503109C901880F991F880F991F820F22
:100A3000931F835D9E4FFC018081842B80937901FD
:100A400081E090E09A83898303C01A8219820000B2
:100A5000000088E290E020917901FC0120838BE284
:100A600090E020917A012095FC01208389819A8170
:100A70000F900F90DF91CF910895CF93DF9300D027
:100A80001F92CDB7DEB79B838A838A819B81892B96
:100A900009F081C00E941C0189838981882F90E020
:100AA000092E000CAA0BBB0B40E050E024E430E020
:100AB000841B950B2817390708F466C08A5B9F4F83
:100AC000FC010C9499078FE18093120161C081E0D1
:100AD0008093120181E0809313015AC082E08093D9
:100AE000120182E08093130153C083E080931201CE
:100AF00083E0809313014CC084E08093120184E072
:100B00008093130145C085E08093120185E08093B6
:100B100013013EC086E08093120186E080931301AA
:100B200037C087E08093120133C088E080931201C0
:100B30002FC089E0809312012BC08AE080931201BC
:100B400081E08093140124C08BE08093120182E045
:100B5000809314011DC08CE08093120183E0809388
:100B6000140116C08DE08093120184E0809314017B
:100B70000FC08EE0809312010BC01092120108C0CA
:100B80008FE08093120104C08BE18093120100007A
:100B90001B821A8203C01B821A82000000008A8115
:100BA0009B810F900F900F90DF91CF9108950F933D
:100BB0001F93CF93DF93CDB7DEB72F970FB6F8947F
:100BC000DEBF0FBECDBF81E290E020EFFC012083AD
:100BD00082E290E02FE0FC0120838AE290E02FEF98
:100BE000FC0120838BE290E0FC01108287E290E020
:100BF0002FEFFC01208388E290E0FC01108286E068
:100C0000ECE4F1E0DE011A9601900D928A95E1F78D
:100C100083E090E098878F838FEF89878985809321
:100C2000580182E390E0A0E0B0E0809359019093F6
:100C30005A01A0935B01B0935C018091590190919E
:100C40005A01A0915B01B0915C0180935D0190938A
:100C50005E01A0935F01B09360018DE395E09093F6
:100C60006201809361011092630181E090E0A0E055
:100C7000B0E08093640190936501A0936601B09306
:100C800067018091640190916501A0916601B09126
:100C900067018093680190936901A0936A01B09302
:100CA0006B018DEA93E090936D0180936C0181E07C
:100CB00080936E0181E090E0A0E0B0E080936F014E
:100CC00090937001A0937101B093720180916F01B4
:100CD00090917001A0917101B091720180937301A4
:100CE00090937401A0937501B09376018BE793E024
:100CF00090937801809377018A859B85FC0181819F
:100D00009281A381B48189839A83AB83BC8381E080
:100D100090E09E838D8325C08D819E81880F991FD1
:100D20009E012F5F3F4F820F931F0996FC01808128
:100D30009181FC01218132814381548189819A8191
:100D4000AB81BC81BC01CD010E941002DC01CB0152
:100D500089839A83AB83BC838D819E8101969E8318
:100D60008D832D813E818F81988528173907A0F2C8
:100D70000E943B0389819A81AB81BC81BC01CD017A
:100D80000E940D030E945D021E821D82A0C08D8103
:100D90009E81880F991F9E012F5F3F4F820F931FE7
:100DA0000996FC0180819181FC0125813681478172
:100DB00050858D819E81880F991FBE016F5F7F4F87
:100DC000860F971F0996FC0180819181FC0181812A
:100DD0009281A381B481281739074A075B0709F07C
:100DE00045C08D819E81880F991F9E012F5F3F4FC7
:100DF000820F931F0996FC01008111818D819E81D4
:100E0000880F991F9E012F5F3F4F820F931F0996F6
:100E1000FC0180819181FC01218532858D819E813B
:100E2000880F991FAE014F5F5F4F840F951F099682
:100E3000FC0180819181FC018081082E000C990BBE
:100E4000F9010995F80180838D819E81880F991F92
:100E50009E012F5F3F4F820F931F0996FC018081F7
:100E60009181FC0115821682178210868D819E81E8
:100E7000880F991F9E012F5F3F4F820F931F099686
:100E8000FC01608171818D819E81880F991F9E0177
:100E90002F5F3F4F820F931F0996FC018081918144
:100EA000FC01258136814781508589819A81AB81FA
:100EB000BC81820F931FA41FB51FFB0185839683FE
:100EC000A783B0878D819E8101969E838D832D811E
:100ED0003E818F8198852817390708F458CF000084
:100EE000809152018823E1F3109252014DCFA1E28B
:100EF0001A2EAA1BBB1BFD010DC0AA1FBB1FEE1F94
:100F0000FF1FA217B307E407F50720F0A21BB30BDE
:100F1000E40BF50B661F771F881F991F1A9469F75A
:100F200060957095809590959B01AC01BD01CF01B6
:100F30000895EE0FFF1F0024001C0BBE0790F691D2
:080F4000E02D0994F894FFCFA5
:100F48000000000200000000AC00000000000100EA
:100F5800000001010106090F09090E090E090E0F0B
:100F68000808080F0E0909090E0202020202070109
:100F7800070407070107010705050701010704071B
:100F88000107070407050701020408105801630157
:020F98006E01E8
:00000001FF
